:0400000007EF00F016
:100008005E8209ED00F088EF0EF00600FACF0CF0E2
:10001800FBCF0DF0E9CF0EF0EACF0FF0E1CF10F0F3
:10002800E2CF11F0D9CF12F0DACF13F0F3CF14F0FA
:10003800F4CF15F0F6CF16F0F7CF17F0F8CF18F089
:10004800F5CF19F05EC01AF05FC01BF060C01CF05D
:1000580061C01DF0F0A07ED381380F0B0F0B206E0E
:100068002050010D470EF324F66EFE0EF420F76EB5
:100078000800F5CF21F02050010D470EF324F66E4D
:10008800FE0EF420F76E0800F550FAEC0EF0515011
:10009800D8A415D0520E2118D8A403D0520E346E0D
:1000A800B5D2460E2118D8A403D0460E356EAED26E
:1000B8004C0E2118D8A4AAD24C0E366EA7D25104E1
:1000C800D8A498D0310E2118D8A43FD048C046F003
:1000D80049C047F0484A492A49BE06D0495012E16A
:1000E800050E485CD8B00ED021C041F0330E0B6E1F
:1000F800BB0E0A6EE00EE82EFED70A2EFCD70B2E9A
:10010800FAD784D2C00E04EC0FF0060E0B6E130E55
:100118000A6EAE0EE82EFED70A2EFCD70B2EFAD7A3
:10012800200E046EFF0E056EC2EC0EF0660E0B6E0E
:10013800760E0A6EC10EE82EFED70A2EFCD70B2EBD
:10014800FAD700F0B7EC0BF061D2320E2118D8A420
:1001580006D09BD0020E4826000E492257D2330EF5
:100168002118D8B424D0450E2118D8B420D0530E65
:100178002118D8B41CD04D0E2118D8B418D0460E6A
:100188002118D8B414D04F0E2118D8B410D0410E6D
:100198002118D8B40CD0420E2118D8B408D04C0E6F
:1001A8002118D8B404D04E0E2118D8A42FD2C00ECE
:1001B80004EC0FF0060E0B6E130E0A6EAE0EE82E50
:1001C800FED70A2EFCD70B2EFAD7200E046EFF0E90
:1001D800056EC2EC0EF0660E0B6E760E0A6EC10E40
:1001E800E82EFED70A2EFCD70B2EFAD700F0B7EC74
:1001F8000BF00CD2020E5118D8A497D0310E21184A
:10020800D8A43FD048C046F049C047F0484A492AD8
:1002180049BE06D0495012E1050E485CD8B00ED050
:1002280021C040F0330E0B6EBB0E0A6EE00EE82EB6
:10023800FED70A2EFCD70B2EFAD7E8D1C00E04EC55
:100248000FF0060E0B6E130E0A6EAE0EE82EFED7DA
:100258000A2EFCD70B2EFAD7200E046EFF0E056E61
:10026800C2EC0EF0660E0B6E760E0A6EC10EE82E0C
:10027800FED70A2EFCD70B2EFAD700F0B7EC0BF0FE
:10028800C5D1320E2118D8A405D048C046F049C0BF
:1002980047F060D7330E2118D8B424D0450E211862
:1002A800D8B420D0530E2118D8B41CD04D0E211824
:1002B800D8B418D0460E2118D8B414D04F0E21182F
:1002C800D8B410D0410E2118D8B40CD0420E211841
:1002D800D8B408D04C0E2118D8B404D04E0E21182A
:1002E800D8A494D1C00E04EC0FF0060E0B6E130EBA
:1002F8000A6EAE0EE82EFED70A2EFCD70B2EFAD7C2
:10030800200E046EFF0E056EC2EC0EF0660E0B6E2C
:10031800760E0A6EC10EE82EFED70A2EFCD70B2EDB
:10032800FAD700F0B7EC0BF071D1030E5118D8A42E
:10033800A8D048C046F049C047F0310E2118D8B4BB
:1003480059D0320E2118D8B455D0330E2118D8B44C
:1003580051D0450E2118D8B420D0530E2118D8B446
:100368001CD04D0E2118D8B418D0460E2118D8B478
:1003780014D04F0E2118D8B410D0410E2118D8B47B
:100388000CD0420E2118D8B408D04C0E2118D8B47D
:1003980004D04E0E2118D8A42DD0C00E04EC0FF0B6
:1003A800060E0B6E130E0A6EAE0EE82EFED70A2E40
:1003B800FCD70B2EFAD7200E046EFF0E056EC2EC8A
:1003C8000EF0660E0B6E760E0A6EC10EE82EFED784
:1003D8000A2EFCD70B2EFAD700F0B7EC0BF00AD098
:1003E800484A492A11D0020E01D0030E4826000EB1
:1003F80049220AD02150310AD8B4F2D7030AD8B416
:10040800F2D7010AD8B4F1D749BE06D0495016E14F
:10041800050E485CD8B012D021C03FF0310E3F180D
:10042800D8A4F4D0330E0B6EBB0E0A6EE00EE82E85
:10043800FED70A2EFCD70B2EFAD7E8D0C00E04EC54
:100448000FF0060E0B6E130E0A6EAE0EE82EFED7D8
:100458000A2EFCD70B2EFAD7200E046EFF0E056E5F
:10046800C2EC0EF0660E0B6E760E0A6EC10EE82E0A
:10047800FED70A2EFCD70B2EFAD700F0B7EC0BF0FC
:10048800C5D0040E5118D8A460D04F0E2118D8A496
:1004980002D0310E11D0410E2118D8A402D0320E4C
:1004A8000BD0420E2118D8A402D0330E05D04E0E20
:1004B8002118D8A403D0340E4E6EA8D0310E2118BE
:1004C800D8B420D0320E2118D8B41CD0330E21183D
:1004D800D8B418D0450E2118D8B414D0530E21180A
:1004E800D8B410D04D0E2118D8B40CD0460E21180F
:1004F800D8B408D04C0E2118D8B404D0520E211804
:10050800D8A484D0C00E04EC0FF0060E0B6E130EA8
:100518000A6EAE0EE82EFED70A2EFCD70B2EFAD79F
:10052800200E046EFF0E056EC2EC0EF0660E0B6E0A
:10053800760E0A6EC10EE82EFED70A2EFCD70B2EB9
:10054800FAD700F0B7EC0BF061D0050E5118D8A41B
:100558005DD0450E2118D8A402D0310E0BD0530E11
:100568002118D8A402D0320E05D04D0E2118D8A4D7
:1005780003D0330E4D6E4AD0330E2118D8B424D090
:10058800310E2118D8B420D0320E2118D8B41CD07E
:10059800520E2118D8B418D0460E2118D8B414D049
:1005A8004F0E2118D8B410D0410E2118D8B40CD051
:1005B800420E2118D8B408D04C0E2118D8B404D053
:1005C8004E0E2118D8A422D0C00E04EC0FF0060E4F
:1005D8000B6E130E0A6EAE0EE82EFED70A2EFCD74F
:1005E8000B2EFAD7200E046EFF0E056EC2EC0EF02D
:1005F800660E0B6E760E0A6EC10EE82EFED70A2E18
:10060800FCD70B2EFAD700F0B7EC0BF00F0E201822
:10061800D8A485D081380F0B0F0B1F6E1F50010D0A
:10062800470EF324F66EFE0EF420F76E0800F5CFA1
:100638001EF061D0010E04EC0FF0C30E0A6ECD0E51
:10064800E82EFED70A2EFCD700F049EC0CF0010E7C
:1006580044D0010E04EC0FF0C30E0A6ECD0EE82E46
:10066800FED70A2EFCD700F0020E37D0010E04EC9C
:100678000FF0C30E0A6ECD0EE82EFED70A2EFCD759
:1006880000F0020E516E030E28D0010E04EC0FF09C
:10069800C30E0A6ECD0EE82EFED70A2EFCD700F048
:1006A800020E516E040E19D0010E04EC0FF0C30EA9
:1006B8000A6ECD0EE82EFED70A2EFCD700F0050EE6
:1006C8000CD0010E04EC0FF0C30E0A6ECD0EE82E0E
:1006D800FED70A2EFCD70DD0060E516E3AD0010E69
:1006E80004EC0FF0C30E0A6ECD0EE82EFED70A2ECC
:1006F800FCD700F0F1D75150000AD8B49BD7010AB3
:10070800D8B4A7D7030AD8B4B1D7010AD8B4BDD78B
:10071800070AD8B4C9D7010AD8B4D3D7E0D70E0E80
:100728002018D8A403D0B7EC0BF013D00C0E201867
:10073800D8A40FD0010E04EC0FF0C30E0A6ECD0E34
:10074800E82EFED70A2EFCD700F0090E516E010ED6
:10075800506EF0901DC061F01CC060F01BC05FF0CF
:100768001AC05EF019C0F5FF18C0F8FF17C0F7FFF0
:1007780016C0F6FF15C0F4FF14C0F3FF13C0DAFF6C
:1007880012C0D9FF11C0E2FF10C0E1FF0FC0EAFF9D
:100798000EC0E9FF0DC0FBFF0CC0FAFF5E9211000E
:1007A8003CC08BF08B9E82AE04D00001856B852BFC
:1007B80002D00001856B8551896F8A6B000E886FA6
:1007C800000E876F885105E10E0E875DD8B0E2D222
:1007D80001D0E0D2260E8725D96E000E8821DA6E68
:1007E800790EDE18D8A4D0D2310E4118D8A462D020
:1007F800420E8B6F330E0001866FBB0E856FDF0EC6
:10080800E82EFED7852FFCD7862FFAD700D08B0E7F
:10081800226E000E236E010E246E19EC0DF0330EBD
:100828000001866FBB0E856FDF0EE82EFED7852F81
:10083800FCD7862FFAD700D0060E0001866F130E5C
:10084800856FAD0EE82EFED7852FFCD7862FFAD7F9
:1008580000D0000189058A11D8A4EED7010EF0EC6A
:100868000EF0C30E0001856FCD0EE82EFED7852F42
:10087800FCD7060E0001866F130E856FAD0EE82EAD
:10088800FED7852FFCD7862FFAD700D02E0E000171
:10089800806FFF0E816FABEC0EF0330E0001866F98
:1008A800BB0E856FDF0EE82EFED7852FFCD7862F6F
:1008B800FAD766D0320E4118D8A463D0430E00018F
:1008C8008B6F330E0001866FBB0E856FDF0EE82E2F
:1008D800FED7852FFCD7862FFAD700D08B0E226E35
:1008E800000E236E010E246E19EC0DF0330E00017C
:1008F800866FBB0E856FDF0EE82EFED7852FFCD7DF
:10090800862FFAD700D0060E0001866F130E856F6A
:10091800AD0EE82EFED7852FFCD7862FFAD700D04C
:10092800000189058A11D8A4EED7010EF0EC0EF06B
:10093800C30E0001856FCD0EE82EFED7852FFCD79C
:10094800060E0001866F130E856FAD0EE82EFED7DA
:10095800852FFCD7862FFAD700D0390E0001806F7B
:10096800FF0E816FABEC0EF0330E0001866FBB0EED
:10097800856FDF0EE82EFED7852FFCD7862FFAD796
:1009880000D0310E4018D8A463D0440E00018B6FFC
:10099800330E0001866FBB0E856FDF0EE82EFED783
:1009A800852FFCD7862FFAD700D08B0E226E000E2B
:1009B800236E010E246E19EC0DF0330E0001866FC4
:1009C800BB0E856FDF0EE82EFED7852FFCD7862F4E
:1009D800FAD700D0060E0001866F130E856FAD0E94
:1009E800E82EFED7852FFCD7862FFAD700D0000136
:1009F80089058A11D8A4EED7010EF0EC0EF0C30ECB
:100A08000001856FCD0EE82EFED7852FFCD7060E88
:100A18000001866F130E856FAD0EE82EFED7852F69
:100A2800FCD7862FFAD700D0440E0001806FFF0E46
:100A3800816FABEC0EF0330E0001866FBB0E856F35
:100A4800DF0EE82EFED7852FFCD7862FFAD766D083
:100A5800320E4018D8A463D0450E00018B6F330EB8
:100A68000001866FBB0E856FDF0EE82EFED7852F3F
:100A7800FCD7862FFAD700D08B0E226E000E236E7D
:100A8800010E246E19EC0DF0330E0001866FBB0EBB
:100A9800856FDF0EE82EFED7852FFCD7862FFAD775
:100AA80000D0060E0001866F130E856FAD0EE82E7E
:100AB800FED7852FFCD7862FFAD700D000018905ED
:100AC8008A11D8A4EED7010EF0EC0EF0C30E000187
:100AD800856FCD0EE82EFED7852FFCD7060E0001B8
:100AE800866F130E856FAD0EE82EFED7852FFCD7C7
:100AF800862FFAD700D04F0E0001806FFF0E816F4E
:100B0800ABEC0EF0330E0001866FBB0E856FDF0E67
:100B1800E82EFED7852FFCD7862FFAD700D0310EC6
:100B28003F18D8A463D0460E00018B6F330E000126
:100B3800866FBB0E856FDF0EE82EFED7852FFCD79C
:100B4800862FFAD700D08B0E226E000E236E010E70
:100B5800246E19EC0DF0330E0001866FBB0E856F05
:100B6800DF0EE82EFED7852FFCD7862FFAD700D0C8
:100B7800060E0001866F130E856FAD0EE82EFED7A8
:100B8800852FFCD7862FFAD700D0000189058A1156
:100B9800D8A4EED7010EF0EC0EF0C30E0001856F5D
:100BA800CD0EE82EFED7852FFCD7060E0001866FE6
:100BB800130E856FAD0EE82EFED7852FFCD7862F36
:100BC800FAD700D05A0E0001806FFF0E816FABEC90
:100BD8000EF0330E0001866FBB0E856FDF0EE82E18
:100BE800FED7852FFCD7862FFAD7CDD0320E3F18E7
:100BF800D8A463D0470E00018B6F330E0001866FB7
:100C0800BB0E856FDF0EE82EFED7852FFCD7862F0B
:100C1800FAD700D08B0E226E000E236E010E246EC2
:100C280019EC0DF0330E0001866FBB0E856FDF0ED9
:100C3800E82EFED7852FFCD7862FFAD700D0060ED0
:100C48000001866F130E856FAD0EE82EFED7852F37
:100C5800FCD7862FFAD700D0000189058A11D8A4BD
:100C6800EED7010EF0EC0EF0C30E0001856FCD0E2D
:100C7800E82EFED7852FFCD7060E0001866F130ECF
:100C8800856FAD0EE82EFED7852FFCD7862FFAD7B5
:100C980000D0650E0001806FFF0E816FABEC0EF087
:100CA800330E0001866FBB0E856FDF0EE82EFED770
:100CB800852FFCD7862FFAD766D0330E3F18D8A4D5
:100CC80063D0480E00018B6F330E0001866FBB0E98
:100CD800856FDF0EE82EFED7852FFCD7862FFAD733
:100CE80000D08B0E226E000E236E010E246E19ECBE
:100CF8000DF0330E0001866FBB0E856FDF0EE82EF8
:100D0800FED7852FFCD7862FFAD700D0060E000114
:100D1800866F130E856FAD0EE82EFED7852FFCD794
:100D2800862FFAD700D0000189058A11D8A4EED7FA
:100D3800010EF0EC0EF0C30E0001856FCD0EE82E0B
:100D4800FED7852FFCD7060E0001866F130E856F20
:100D5800AD0EE82EFED7852FFCD7862FFAD700D008
:100D6800700E0001806FFF0E816FABEC0EF0330E3A
:100D78000001866FBB0E856FDF0EE82EFED7852F2C
:100D8800FCD7862FFAD700D00001874B882B8851D3
:100D980001E11AD5650E8B6F330E0001866FBB0E0D
:100DA800856FDF0EE82EFED7852FFCD7862FFAD762
:100DB80000D08B0E226E000E236E010E246E19ECED
:100DC8000DF0330E0001866FBB0E856FDF0EE82E27
:100DD800FED7852FFCD7862FFAD700D01200000E39
:100DE800896E000E8A6E000E8B6E000E8C6E000EE1
:100DF8008D6E92689368000E946E000E956E000ECC
:100E0800966E000EC26E0F0EC16EF086F28E800EC8
:100E1800226E250E236E000E246E000E256E6AECDF
:100E28000DF082EC0AF085C094F086C095F0300E83
:100E38004118D8A408D0AE0E0001806FFF0E816F54
:100E4800ABEC0EF017D0310E4118D8A408D0D40E50
:100E58000001806FFF0E816FABEC0EF00BD0320EED
:100E68004118D8A407D0B80E0001806FFF0E816F1B
:100E7800ABEC0EF0C00EF0EC0EF0330E0001936FE9
:100E8800BB0E926FDF0EE82EFED7922FFCD7932F62
:100E9800FAD700D0010EF0EC0EF0C30E0001926FED
:100EA800CD0EE82EFED7922FFCD7300E4018D8A4CE
:100EB80008D0860E0001806FFF0E816FABEC0EF03C
:100EC80017D0310E4018D8A408D0C20E0001806F88
:100ED800FF0E816FABEC0EF00BD0320E4018D8A489
:100EE80007D0900E0001806FFF0E816FABEC0EF003
:100EF800C00EF0EC0EF0330E0001936FBB0E926F34
:100F0800DF0EE82EFED7922FFCD7932FFAD700D00A
:100F1800010EF0EC0EF0C30E0001926FCD0EE82E1C
:100F2800FED7922FFCD7300E3F18D8A408D09A0EBF
:100F38000001806FFF0E816FABEC0EF017D0310E01
:100F48003F18D8A408D0CB0E0001806FFF0E816F28
:100F5800ABEC0EF00BD0320E3F18D8A407D0A40E7D
:100F68000001806FFF0E816FABEC0EF0C00EF0EC4D
:100F78000EF0330E0001936FBB0E926FDF0EE82E5A
:100F8800FED7922FFCD7932FFAD700D0010EF0ECA2
:100F98000EF0C30E0001926FCD0EE82EFED7922FF1
:100FA800FCD7310E4D18D8A408D0DD0E0001806F93
:100FB800FF0E816FABEC0EF017D0320E4D18D8A48F
:100FC80008D0840E0001806FFE0E816FABEC0EF02E
:100FD8000BD0330E4D18D8A407D0720E0001806FC5
:100FE800FE0E816FABEC0EF0C00EF0EC0EF0330E7F
:100FF8000001936FBB0E926FDF0EE82EFED7922F83
:10100800FCD7932FFAD700D0010EF0EC0EF0C30EE8
:101018000001926FCD0EE82EFED7922FFCD7310E2D
:101028004E18D8A408D0E60E0001806FFF0E816F1D
:10103800ABEC0EF023D0320E4E18D8A408D0680EB0
:101048000001806FFE0E816FABEC0EF017D0330EEF
:101058004E18D8A408D05E0E0001806FFE0E816F76
:10106800ABEC0EF00BD0340E4E18D8A407D0110EEE
:101078000001806FFF0E816FABEC0EF0010EF0ECFB
:101088000EF0C30E0001926FCD0EE82EFED7922F00
:10109800FCD73EC098F0330E0001936FBB0E926FE1
:1010A800DF0EE82EFED7922FFCD7932FFAD700D069
:1010B8008B9E82AE04D00001926B922B02D000016D
:1010C800926B9251966F976B980E226E000E236E5C
:1010D800010E246E19EC0DF0330E0001936FBB0E58
:1010E800926FDF0EE82EFED7922FFCD7932FFAD7F8
:1010F80000D020D0330E0001936FBB0E926FDF0E2D
:10110800E82EFED7922FFCD7932FFAD700D0EE0EF9
:101118000001806FFF0E816FABEC0EF0660E0001D0
:10112800936F760E926FC10EE82EFED7922FFCD7E2
:10113800932FFAD7000196519711D8B4DBD7010E37
:10114800F0EC0EF0C30E0001926FCD0EE82EFED724
:10115800922FFCD77B0E0001806FFF0E816FABECE6
:101168000EF0660E0001936F760E926FC10EE82E98
:10117800FED7922FFCD7932FFAD7010EF0EC0EF082
:10118800C30E0001926FCD0EE82EFED7922FFCD72A
:101198002BEC0EF0330E0001936FBB0E926FDF0E37
:1011A800E82EFED7922FFCD7932FFAD700D0330E14
:1011B8000001936FBB0E926FDF0EE82EFED7922FC1
:1011C800FCD7932FFAD700D0EEEC08F0D4EC03F05C
:1011D80007EF00F08BD1310E4E18D8A41CD0310E79
:1011E8004D18D8A40FD0790E266E790E286E790E78
:1011F8002A6E790E2C6E790E2E6E790E306E790E5F
:10120800326E9CD0320E4D18D8B454D0330E4D18CF
:10121800D8A494D060D0320E4E18D8A41AD0310E6B
:101228004D18D8B42CD0320E4D18D8A407D0790E4A
:10123800336E790E2F6E790E2B6E73D0330E4D18D8
:10124800D8A47CD0790E316E790E2D6E790E296E68
:1012580075D0330E4E18D8A443D0310E4D18D8A4EB
:101268001DD0790E266E790E286E790E2A6E790EAB
:101278002C6E790E2E6E790E306E790E326E790ED6
:10128800276E790E296E790E2B6E790E2D6E790EDA
:101298002F6E790E316E790E336E50D0320E4D1896
:1012A800D8A40FD0790E336E790E2F6E790E2B6E6F
:1012B800790E276E790E326E790E2E6E790E2A6EA1
:1012C80023D0330E4D18D8A439D0790E316E790E4B
:1012D8002D6E790E296E790E306E790E2C6E2CD00B
:1012E800340E4E18D8A42AD0310E4D18D8A40FD0D9
:1012F800790E326E790E316E790E2E6E790E2D6E54
:10130800790E2A6E790E296E790E266E17D0320E56
:101318004D18D8A409D0790E326E790E2F6E790E39
:101328002A6E790E276E0AD0330E4D18D8A406D02F
:10133800790E306E790E2D6E790E286E310E4E189C
:10134800D8A42BD0310E4D18D8A40FD0790E266E04
:10135800790E286E790E2A6E790E2C6E790E2E6E05
:10136800790E306E790E326E1200320E4D18D8A4F6
:1013780009D0790E326E790E2E6E790E2A6E790E9C
:10138800266E1200330E4D18D8A41200790E306E56
:10139800790E2C6E790E286E1200320E4E18D8A4D3
:1013A8002BD0310E4D18D8A40FD0790E276E790E98
:1013B800296E790E2B6E790E2D6E790E2F6E790EA1
:1013C800316E790E336E1200320E4D18D8A409D042
:1013D800790E336E790E2F6E790E2B6E790E276E7D
:1013E8001200330E4D18D8A41200790E316E790E02
:1013F8002D6E790E296E1200330E4E18D8A447D0E0
:10140800310E4D18D8A41DD0790E266E790E286E8F
:10141800790E2A6E790E2C6E790E2E6E790E306E3C
:10142800790E326E790E276E790E296E790E2B6E33
:10143800790E2D6E790E2F6E790E316E790E336E10
:101448001200320E4D18D8A411D0790E336E790ED1
:101458002F6E790E2B6E790E276E790E326E790EFD
:101468002E6E790E2A6E790E266E1200330E4D18E6
:10147800D8A41200790E316E790E2D6E790E296E70
:10148800790E306E790E2C6E790E286E1200340E9D
:101498004E18D8A41200310E4D18D8A40FD0790ECA
:1014A800326E790E316E790E2E6E790E2D6E790EA2
:1014B8002A6E790E296E790E266E1200320E4D189C
:1014C800D8A409D0790E336E790E2E6E790E2B6E54
:1014D800790E266E1200330E4D18D8A41200790E1C
:1014E800306E790E2D6E790E286E12004250310A38
:1014F800D8B471D6030AD8A4120020D762EC0EF033
:10150800000E516EB70E0001806FFE0E816FABECBE
:101518000EF0C00EF0EC0EF00DD0060E0001886F34
:10152800130E876FAD0EE82EFED7872FFCD7882FB6
:10153800FAD700D05150D8B4F0D75004D8B40AD153
:10154800D50E0001806FFE0E816FABEC0EF0C00E61
:10155800F0EC0EF00DD0060E0001886F130E876FA9
:10156800AD0EE82EFED7872FFCD7882FFAD700D0EC
:101578005104D8B4F0D75004D8B4ECD0C60E00014A
:10158800806FFE0E816FABEC0EF0C00EF0EC0EF02B
:101598000DD0060E0001886F130E876FAD0EE82E72
:1015A800FED7872FFCD7882FFAD700D0020E511804
:1015B800D8B4EFD75004D8B4CDD0F30E0001806F63
:1015C800FE0E816FABEC0EF0C00EF0EC0EF00DD0FD
:1015D800060E0001886F130E876FAD0EE82EFED73A
:1015E800872FFCD7882FFAD700D0030E5118D8B40C
:1015F800EFD7310E3F18D8A421D0330E0001886FE1
:10160800BB0E876FDF0EE82EFED7872FFCD7882FFB
:10161800FAD700D0F90E0001806FFF0E816FABEC96
:101628000EF0330E0001886FBB0E876FDF0EE82EB9
:10163800FED7872FFCD7882FFAD700D05004D8A41C
:1016480026D0310E3F18D8A485D0330E0001886FFC
:10165800BB0E876FDF0EE82EFED7872FFCD7882FAB
:10166800FAD700D0F60E0001806FFF0E816FABEC49
:101678000EF0330E0001886FBB0E876FDF0EE82E69
:10168800FED7872FFCD7882FFAD700D063D0310E2A
:101698003F18D8A421D0330E0001886FBB0E876F86
:1016A800DF0EE82EFED7872FFCD7882FFAD700D079
:1016B800FC0E0001806FFF0E816FABEC0EF0330E55
:1016C8000001886FBB0E876FDF0EE82EFED7872FCD
:1016D800FCD7882FFAD700D0960E0001806FFE0E37
:1016E800816FABEC0EF0C00EF0EC0EF00DD0060ED4
:1016F8000001886F130E876FAD0EE82EFED7872F77
:10170800FCD7882FFAD700D0040E5118D8B4EFD7D9
:101718005004D8B41FD0A70E0001806FFE0E816F51
:10172800ABEC0EF0C00EF0EC0EF00DD0060E000182
:10173800886F130E876FAD0EE82EFED7872FFCD764
:10174800882FFAD700D0050E5118D8B4EFD7500417
:10175800D8A403D0000E506ED5D6000E0001866FB7
:10176800000E856F1200010E04EC0FF0C30E096E17
:10177800CD0EE82EFED7092EFCD700F072D0780ED9
:10178800346E780E356E780E366EB70E046EFE0E19
:10179800056EC2EC0EF0C00E04EC0FF012004650BD
:1017A800485E4750495A300E416E020E046EFF0ED5
:1017B800056EC2EC0EF0C00E04EC0FF0120046509D
:1017C800485E4750495A300E406EE40E046EFE0ED5
:1017D800056EC2EC0EF0C00E04EC0FF01200300ED5
:1017E8003F6E4650485E4750495AF30E046EFE0E4F
:1017F800056EC2EC0EF0C00E04EC0FF0C00E04EC47
:101808000FF01200010E04EC0FF0C30E096ECD0E9E
:10181800E82EFED7092EFCD700F0300E4D6E960E3E
:10182800046EFE0E056EC2EC0EF0C00E04EC0FF056
:101838001200300E4E6EA70E046EFE0E056EC2EC40
:101848000EF0C00E04EC0FF01200010E04EC0FF0C5
:10185800C30E096ECD0EE82EFED7092EFCD700F078
:1018680012005150000AD8B48AD7010AD8B497D7C1
:10187800030AD8B4A4D7010AD8B4B1D7070AD8B490
:10188800C1D7010AD8B4D5D7E0D7520E3418D8A496
:101898000BD0780E3518D8A407D0780E3618D8A4EF
:1018A80003D0310E4F6E1200780E3418D8A40BD026
:1018B800460E3518D8A407D0780E3618D8A403D009
:1018C800320E4F6E1200780E3418D8A40BD0780E52
:1018D8003518D8A407D04C0E3618D8A403D0330E28
:1018E8004F6E1200520E3418D8A40BD0460E35187D
:1018F800D8A407D0780E3618D8A403D0340E4F6E6B
:101908001200520E3418D8A40BD04C0E3518D8A497
:1019180007D0780E3618D8A403D0350E4F6E1200B3
:10192800780E3418D8A40BD0460E3518D8A407D092
:101938004C0E3618D8A403D0360E4F6E1200520E35
:101948003418D8A41200460E3518D8A412004C0E2C
:101958003618D8A41200370E4F6E1200000E000180
:10196800896F87AF0AD0871F861F851F846D000E79
:10197800852386238723010E896F83AF0AD0831FAF
:10198800821F811F806D000E812382238323010E15
:10199800891B000E8A6F000E8B6F000E8C6F000E75
:1019A8008D6F8451851186118711D8B42AD0010E04
:1019B800886F06D0D8908437853786378737882B45
:1019C80087AFF8D7D8908A378B378C378D378451C3
:1019D800805D855181598651825987518359D8A094
:1019E80009D08451805F8551815B8651825B875124
:1019F800835B8A81D8908733863385338433882FF5
:101A0800E1D78951D8B408D08D1F8C1F8B1F8A6DE0
:101A1800000E8B238C238D238AC080F08BC081F02D
:101A28008CC082F08DC083F0120020EE08F03A508E
:101A3800D9263B50DA22DF50D8B4F7D720EE08F089
:101A48003A50D9263B50DA22000EDF6E000E000114
:101A5800806FAC8A410E256EEE0EE82EFED7252E3D
:101A6800FCD700D025D0ACB202D0010E01D0000EB8
:101A7800256E9EB802D0010E01D0000E2510F3E1AC
:101A880000F0000EF2BE010E4B6EF29E0001805176
:101A9800010DF3502224D96EF4502320DA6EDF5062
:101AA800AD6E4BB002D0F29E01D0F28E0001802BB9
:101AB80024500001805DD8A0D6D720EE08F03A5017
:101AC800D9263B50DA22010EDF6E1200000E00010B
:101AD800806F5A0E816F620E826F020E836F22C072
:101AE8008EF023C08FF024C090F025C091F0060E30
:101AF800D8908E378F3790379137E82EF9D78EC028
:101B080084F08FC085F090C086F091C087F0B2EC69
:101B18000CF000018005AF6EAC9CAC98AC8AAB9C15
:101B2800AB8820EE08F03A50D9263B50DA22010E55
:101B3800DF6E20EE09F03A50D9263B50DA22010E2A
:101B4800DF6E990E566E000E576E949C948EAB8E77
:101B58001200236E2350F00B226E8C500F0B8C6EEC
:101B680022508C108C6E000EF2BE010E4A6EF29E50
:101B78008C86530EE82EFED700F08C96C80E00D047
:101B8800E82EFDD74AB002D0F29E01D0F28E23385B
:101B9800F00B236E2350F00B226E8C500F0B8C6EC3
:101BA80022508C108C6E000EF2BE010E4A6EF29E10
:101BB8008C86530EE82EFED700F08C96C80E00D007
:101BC800E82EFDD74AB002D0F29E01D0F28E120064
:101BD800026E0250F00B016E8C500F0B8C6E015090
:101BE8008C108C6E000EF2BE010E4A6EF29E8C8630
:101BF800530EE82EFED700F08C96C80E00D0E82EC3
:101C0800FDD74AB002D0F29E01D0F28E0238F00B16
:101C1800026E0250F00B016E8C500F0B8C6E01504F
:101C28008C108C6E000EF2BE010E4A6EF29E8C86EF
:101C3800530EE82EFED700F08C96C80E00D0E82E82
:101C4800FDD74AB002D0F29E01D0F28E12003DC0FC
:101C580087F0330E0001826FBB0E816FDF0EE82E16
:101C6800FED7812FFCD7822FFAD700D0870E226E9D
:101C7800000E236E010E246E19EC0DF08B9C82ACC5
:101C880004D00001816B812B02D00001816B81514E
:101C9800836F846B000E866F010E856F0AD08305F3
:101CA8008411D8A403D0310E426E1200300E426E59
:101CB800120085058611D8A41200F1D7C30E256E2F
:101CC800CD0EE82EFED7252EFCD700F0330EF0EC13
:101CD8000EF0320EF0EC0EF0280EF0EC0EF00F0EB7
:101CE800F0EC0EF0060EF0EC0EF0010EF0EC0EF03B
:101CF800C30E256ECD0EE82EFED7252EFCD700F09C
:101D08000F0EF0EC0EF01200AE0EF66E1D0EF76E12
:101D1800000EF86E00EE26F010EE1EF00900F5CF6A
:101D2800EEFFE550E150FAE100EE99F0100EEE6A90
:101D3800E806FDE100EE44F01A0EEE6AE806FDE161
:101D48005E905E92000EF86E0001F3EF06F0820ED0
:101D58000001826F000E836F03D08451E6EC0EF011
:101D680080C0F6FF81C0F7FF0001804B812B08007F
:101D7800F5CF84F08451D8B41200EFD7060E066E62
:101D8800000E076E03D00850FAEC0EF004C0F6FF00
:101D980005C0F7FF044A052A0800F5CF08F00850E7
:101DA800D8B41200F0D730303030303030303030E6
:101DB800303030307878783030305200785A5A30B5
:101DC80030307878246E8C842450ADEC0DF0C80E39
:101DD80000D0E82EFDD71200246E8C942450ADEC70
:101DE8000DF0C80E00D0E82EFDD71200036E8C84CB
:101DF8000350ECEC0DF0C80E00D0E82EFDD7120011
:101E0800036E8C940350ECEC0DF0C80E00D0E82E55
:041E1800FDD71200E0
:10FE4600003132335245534D464F41424C2A4E23E0
:10FE560065000001021002284D6F726E696E672000
:10FE6600262041667465726E6F6F6E00416C742059
:10FE760064617973202D204D6F6E64617900416C49
:10FE8600742064617973202D2053756E6461790046
:10FE960052657065746974696F6E2F4461793A2092
:10FEA60000446179204672657175656E63793A2002
:10FEB60000507265736372697074696F6E3A2000E0
:10FEC60023206F6620462050696C6C733A2000230D
:10FED600206F6620522050696C6C733A20002320F4
:10FEE6006F6620462070696C6C733A200023206F81
:10FEF60066204C2070696C6C733A200023206F6674
:10FF060020522070696C6C733A2000416C74204D4D
:10FF16006F726E20262041667400496E76616C69A8
:10FF26006420696E707574007265636569766564D0
:10FF360020320072656365697665642033007265F8
:10FF46006365697665642034007265636569766504
:10FF560064203500726563656976656420360072D3
:10FF660065636569766564203700726563656976E1
:10FF760065642038007265636569766564212100D1
:10FF86003020462070696C6C730032204620706900
:10FF96006C6C730030204C2070696C6C73003220DE
:10FFA6004C2070696C6C73003020522070696C6C48
:10FFB60073003220522070696C6C73003120462029
:10FFC60070696C6C0031204C2070696C6C003120BB
:10FFD600522070696C6C00457665727964617900AF
:10FFE6004D6F726E696E670077616974696E67003E
:09FFF6004C32004C33004C0000B9
:020000040020DA
:08000000FFFFFFFFFFFFFFFF00
:020000040030CA
:0E000000FF061F1EFF8381FF0F400FE00F4021
:00000001FF
